{
  "contractName": "Tether",
  "abi": [
    {
      "constant": true,
      "inputs": [],
      "name": "decimals",
      "outputs": [
        {
          "internalType": "uint8",
          "name": "",
          "type": "uint8"
        }
      ],
      "payable": false,
      "stateMutability": "view",
      "type": "function"
    },
    {
      "constant": true,
      "inputs": [],
      "name": "name",
      "outputs": [
        {
          "internalType": "string",
          "name": "",
          "type": "string"
        }
      ],
      "payable": false,
      "stateMutability": "view",
      "type": "function"
    },
    {
      "constant": true,
      "inputs": [],
      "name": "symbol",
      "outputs": [
        {
          "internalType": "string",
          "name": "",
          "type": "string"
        }
      ],
      "payable": false,
      "stateMutability": "view",
      "type": "function"
    },
    {
      "constant": true,
      "inputs": [],
      "name": "totalSupply",
      "outputs": [
        {
          "internalType": "uint256",
          "name": "",
          "type": "uint256"
        }
      ],
      "payable": false,
      "stateMutability": "view",
      "type": "function"
    }
  ],
  "bytecode": "0x60806040526040518060400160405280600681526020017f54657468657200000000000000000000000000000000000000000000000000008152506000908051906020019061004f9291906100d8565b506040518060400160405280600481526020017f55534454000000000000000000000000000000000000000000000000000000008152506001908051906020019061009b9291906100d8565b5069d3c21bcecceda10000006002556012600360006101000a81548160ff021916908360ff1602179055503480156100d257600080fd5b5061017d565b828054600181600116156101000203166002900490600052602060002090601f016020900481019282601f1061011957805160ff1916838001178555610147565b82800160010185558215610147579182015b8281111561014657825182559160200191906001019061012b565b5b5090506101549190610158565b5090565b61017a91905b8082111561017657600081600090555060010161015e565b5090565b90565b6103238061018c6000396000f3fe608060405234801561001057600080fd5b506004361061004c5760003560e01c806306fdde031461005157806318160ddd146100d4578063313ce567146100f257806395d89b4114610116575b600080fd5b610059610199565b6040518080602001828103825283818151815260200191508051906020019080838360005b8381101561009957808201518184015260208101905061007e565b50505050905090810190601f1680156100c65780820380516001836020036101000a031916815260200191505b509250505060405180910390f35b6100dc610237565b6040518082815260200191505060405180910390f35b6100fa61023d565b604051808260ff1660ff16815260200191505060405180910390f35b61011e610250565b6040518080602001828103825283818151815260200191508051906020019080838360005b8381101561015e578082015181840152602081019050610143565b50505050905090810190601f16801561018b5780820380516001836020036101000a031916815260200191505b509250505060405180910390f35b60008054600181600116156101000203166002900480601f01602080910402602001604051908101604052809291908181526020018280546001816001161561010002031660029004801561022f5780601f106102045761010080835404028352916020019161022f565b820191906000526020600020905b81548152906001019060200180831161021257829003601f168201915b505050505081565b60025481565b600360009054906101000a900460ff1681565b60018054600181600116156101000203166002900480601f0160208091040260200160405190810160405280929190818152602001828054600181600116156101000203166002900480156102e65780601f106102bb576101008083540402835291602001916102e6565b820191906000526020600020905b8154815290600101906020018083116102c957829003601f168201915b50505050508156fea265627a7a7231582003f8a21e6b0ef419308761ae6ed3ad0cdc82433b1982bc8fb15588279ea897e564736f6c63430005110032",
  "source": "pragma solidity ^0.5.0;\r\n\r\ncontract Tether {\r\n    string public name = 'Tether';\r\n    string public symbol = 'USDT';\r\n    uint256 public totalSupply = 1000000000000000000000000;  // 1 million tokens;\r\n    uint8 public decimals = 18;\r\n}",
  "sourcePath": "D:\\my-projects\\defi-staking-dapp\\src\\contracts\\Tether.sol",
  "compiler": {
    "name": "solc",
    "version": "0.5.17+commit.d19bba13.Emscripten.clang"
  },
  "schemaVersion": "3.4.3",
  "updatedAt": "2021-10-03T15:00:51.575Z",
  "networkType": "ethereum",
  "devdoc": {
    "methods": {}
  },
  "userdoc": {
    "methods": {}
  }
}